:020000041000EA
:1000000000B5324B212058609868022188439860DF
:10001000D860186158612E4B002199600221596106
:100020000121F02299502B49196001219960352056
:1000300000F044F80222904214D00621196600F024
:1000400034F8196E01211966002018661A6600F04E
:100050002CF8196E196E196E052000F02FF8012189
:100060000842F9D1002199601B49196000215960AB
:100070001A491B48016001219960EB211966A021F2
:10008000196600F012F800219960164914480160C1
:100090000121996001BC002800D000471248134993
:1000A000086003C880F30888084703B5996A0420EC
:1000B0000142FBD001200142F8D103BD02B5186610
:1000C0001866FFF7F2FF186E186E02BD00000240BE
:1000D000000000180000070000035F00212200005C
:1000E000F4000018222000A00001001008ED00E03C
:1000F00000000000000000000000000074B24E7A12
:1001000000200420F7010010CB010010CD010010E9
:10011000C9010010C9010010C9010010C901001077
:10012000C9010010C9010010C9010010CF01001061
:10013000C9010010C9010010D1010010D301001045
:10014000C1010010C1010010C1010010C101001067
:10015000C1010010C1010010C1010010C101001057
:10016000C1010010C1010010C1010010C101001047
:10017000C1010010C1010010C1010010C101001037
:10018000C1010010C1010010C1010010C101001027
:10019000C1010010C1010010C1010010C101001017
:1001A000C1010010C1010010C1010010C101001007
:1001B000C1010010C1010010C1010010C1010010F7
:1001C000EFF30580103800BE00BE00BE00BE00BECA
:1001D00000BE00BEF2EB8871906C0010C06C001085
:1001E0003802001090A31AE71E481F49086006C88D
:1001F00081F3088810471D480068002801D019487D
:10020000F3E70DA40ECC002902D000F012F8F9E7B4
:100210001749184A002000E001C19142FCD116495B
:100220008847164988471649884700BEFDE701C937
:1002300001C29A42FBD37047C06C0010C00000207E
:10024000A8100020A87C001000000420000004205A
:10025000A87C001000100420001004200000000002
:10026000704700000000000008ED00E0000000D032
:10027000A8100020485D0020C5460010890300102A
:10028000BD460010F8B5C0460448054B10B5834282
:1002900003D0044B002B00D0984710BDA8100020BD
:1002A000A81000200000000006480749091A8B101A
:1002B000C90FC91810B5491003D0044B002B00D04A
:1002C000984710BDA8100020A810002000000000D2
:1002D00010B5074C2378002B09D1FFF7D5FF054B4C
:1002E000002B02D0044800E000BF0123237010BDA2
:1002F000281400200000000024690010054B10B5F0
:10030000002B03D00449054800E000BFFFF7CCFFF5
:1003100010BDC046000000002C140020246900100D
:1003200070B500F0ABFF01F05BF9FA20400002F07D
:1003300091F9144D01200021404205F00FF801F021
:1003400063F801F01BF902F02FFA00290DD0FA2210
:100350000023920002F082FE2B680400C31A042BD3
:10036000E8D901F091F92C60E4E7FA21890002F064
:1003700037FE2B680400C31A042BDBD901F084F983
:100380002C60D7E7FC5C002010B504F0ABFA00212C
:10039000002005F0EBFE00F00BF80020012100F03A
:1003A00077FE024804F04AFCFEE7C0462103001035
:1003B000F0B5DE46454657464E46E0B51A4A97B078
:1003C00000211A4804F04CF9184A194B5365194B8F
:1003D000936513005C3300931300174A9446174A41
:1003E000634494460B93114B63440C9300231A1CF3
:1003F0009B469A46994698460A9307930993069313
:10040000059304930393029301931493139312930C
:10041000119310930F930E930D930023159208934D
:10042000151C141C75E1C0465C300000A02800209B
:1004300000007A45F4FD343F5C1000005C200000B1
:10044000FC480B9DFC492880019803F048FD391CAD
:1004500003F02EFDF949041C029803F040FD211C15
:1004600003F026FDF649041C039803F038FD211C17
:1004700003F01EFDF349041C049803F030FD211C19
:1004800003F016FDF049041C059803F028FD211C1B
:1004900003F00EFDED49041C069803F020FD211C1D
:1004A00003F006FDEA49041C079803F018FD211C1F
:1004B00003F0FEFC03F0CAFDE64AE74B02F0FBFF47
:1004C00003F006F8E54903F00AFD03F081FD0C9BFB
:1004D000089A009918800231023301320892009183
:1004E0000C938023A91C0B911B019A4200D198E226
:1004F000100003F04BFDE821890503F0F0FC03F048
:10050000A5FDD74AD74B06000F0002F0D4FF02F03A
:10051000DFFF03F0B7FDD44AD44B0D903900300013
:1005200002F0C9FF02F0D4FF03F0ACFDD04AD14B7A
:100530000E903900300002F0BEFF02F0C9FF03F058
:10054000A1FDCD4ACD4B0F903900300002F0B3FF32
:1005500002F0BEFF03F096FDC94ACA4B1090390065
:10056000300002F0A8FF02F0B3FF03F08BFDC64A93
:10057000C64B11903900300002F09DFF02F0A8FF39
:1005800003F080FDC24AC34B12903900300002F0E4
:1005900092FF02F09DFF03F075FDBF4ABF4B139021
:1005A0003900300002F087FF02F092FF03F06AFD8D
:1005B000BB4ABC4B14903900300002F07CFF02F0C3
:1005C00087FF03F05FFDB64AB74B82463900300023
:1005D00002F071FF02F07CFF03F054FDB34AB44B0C
:1005E00081463900300002F066FF02F071FF03F02F
:1005F00049FDAB4AAF4B01903900300002F05BFF80
:1006000002F066FF03F03EFDAB4AAC4B159039009B
:10061000300002F050FF02F05BFF03F033FDA34A0D
:10062000A74B02903900300002F045FF02F050FF66
:1006300003F028FDA34AA44B80463900300002F0A5
:100640003AFF02F045FF03F01DFD954A9F4B0390D2
:100650003900300002F02FFF02F03AFF03F012FDE4
:100660009B4A9C4B83463900300002F024FF02F085
:100670002FFF03F007FD904A974B0490390030009C
:1006800002F019FF02F024FF03F0FCFC934A944BA4
:100690003900051C300002F00EFF02F019FF03F0D4
:1006A000F1FC824A8F4B05903900300002F003FFC5
:1006B00002F00EFF03F0E6FC8B4A8C4B3900041C61
:1006C000300002F0F8FE02F003FF03F0DBFC7D4A8D
:1006D000874B06903900300002F0EDFE02F0F8FE84
:1006E00003F0D0FC834A844B09903900300002F0BB
:1006F000E2FE02F0EDFE03F0C5FC694A7F4B079075
:100700003900300002F0D7FE02F0E2FE03F0BAFC3E
:100710000A900021504603F0CBFBFC21071C890501
:10072000484603F0DCFB391C03F0C2FB7449061C8D
:10073000019803F0D4FB011C8246301C03F0B8FB87
:10074000FA21061C8905159803F0C9FB311C03F03A
:10075000AFFB6C49061C029803F0C1FB011C8146EB
:10076000301C03F0A5FB6849061C404603F0B7FBAC
:10077000311C03F09DFB6549061C039803F0AFFB99
:10078000011C8046301C03F093FBF821061C8905F0
:10079000584603F0A4FB311C03F08AFB5C49061C9D
:1007A000049803F09CFB011C1590301C03F080FBA7
:1007B0005849061C281C03F092FB311C03F078FBFF
:1007C0005549051C059803F08AFB011C061C281CD2
:1007D00003F06EFB5149051C201C03F080FB291C13
:1007E00003F066FB4E49041C069803F078FB011CDD
:1007F000051C201C03F05CFB4A49041C099803F00B
:100800006EFB211C03F054FB47498346079803F015
:1008100066FB041C011C584603F04AFBF621834684
:1008200089050A9803F05BFB594603F041FB03F08E
:100830000DFC7BE0FF7F0000398EE3BD0AD7233D2E
:10084000052FA7BC88454A3CAB6707BCBCE4C13B4D
:10085000B4A291BB20C722622FF0E93F00FEFF4601
:10086000EA6F88091BB45A408CF510745AD85D4061
:1008700098BD4CEF4C7E6040690091A46C106240C2
:100880003B43D5598CA263400C86190FAC346540AC
:10089000DEC85DC4CBC66640AF0BA279EB5868409A
:1008A000182D4454FB211940FB212940D221337FCC
:1008B0007CD93240FB2139405E3855297A6A3F4065
:1008C0007CD9424075A7BBE9BBFD4540FB214940AF
:1008D000BBB2CCBE3A464C407A6A4F4000DFEEC90C
:1008E0005C4751407CD95240A46477349C6B54409F
:1008F000BBFD554046EAFF9EDB8F5740FB21594028
:10090000ABAAAA3ECDCC4C3EABAA2A3E2549123E0C
:10091000398EE33DCDCCCC3D8C2EBA3DABAAAA3D61
:10092000D9899D3D2549923D8988883D514A524B40
:1009300002F0C1FD02F0CCFD504903F0D0FA03F003
:1009400047FB009B51461880381C03F0B1FA49461A
:1009500003F0AEFA414603F0ABFA159903F0A8FA9A
:10096000311C03F0A5FA291C03F0A2FA211C03F0A4
:100970009FFA4349041C0D9803F0B1FA211C03F0BF
:1009800097FA4049041C0E9803F0A9FA211C03F0C1
:100990008FFA3D49041C0F9803F0A1FA211C03F0C3
:1009A00087FA3A49041C109803F099FA211C03F0C5
:1009B0007FFA3749041C119803F091FA211C03F0C7
:1009C00077FA3449041C129803F089FA211C03F0C9
:1009D0006FFA3149041C139803F081FA211C03F0CB
:1009E00067FA2E49041C149803F079FA211C03F0CD
:1009F0005FFA03F02BFB1F4A294B02F05CFD02F06B
:100A000067FDFE218905041C03F0B6FA002800D01A
:100A100016E52449201C03F099FA002822D0224828
:100A20000FE5224A224B21491361224B5361224B8D
:100A30009361FA239B05D361204B9362204BD362D1
:100A4000204B1363204B5363CB63204B204A0B6432
:100A5000204B8A634B6417B0F0BCBB46B246A94634
:100A6000A046F0BD0549201C03F039FA03F0B0FAA6
:100A700000B2E6E483C8C96D305FE43F00FEFF4684
:100A8000F1F0703D3694573D310C433D4316323DF5
:100A90000AD7233D26B4173DCB3D0D3D0821043D2B
:100AA000305FF43F000080BF0180FFFFA0280020DE
:100AB0000AD7A33BCDCCCC3D3333333F939B943B00
:100AC000B7C56D39C637BE386E486A3D93029CBFC4
:100AD0006E48EA3D822EE53EF8B5CE4647460123F4
:100AE00080B55C4C23706070A1704F33E35C453877
:100AF00023730023636003F049FA574903F0DBF9DD
:100B0000011C8020C00503F0E7FB544903F0E7F91E
:100B10008A21C90503F0E3F9514903F0CCF99F217B
:100B2000C90503F0DCF903F085FA666DA0604D4954
:100B3000301CA56D03F00AFA002853D14A49301C35
:100B400003F01AFA002854D0484B494F9946494BB4
:100B5000494E9846FC21281C890503F0F7F9002826
:100B60000AD14649281C03F007FA002868D0301C37
:100B70003C4903F0A0F9061CFE21301C890503F056
:100B800097F9051C011C381C03F095F9291C071C5A
:100B90006063404603F08FF9291CA063E763484671
:100BA00003F089F92064FE20311C800503F07DF9F3
:100BB000291C03F080F9202301222169E25460649A
:100BC0002F4803F078F96169A0622D4803F073F9AA
:100BD000E169E0622A4803F06EF92063C0BCB946BF
:100BE000B046F8BD274B284F9946284B284E9846CB
:100BF000B0E7301C03F02AFA264A274B02F05BFCD0
:100C00000022264B02F039FC02F062FC061C03F0C5
:100C100027FA8146301C03F035FA061CFE204946AF
:100C2000800503F042F9FC218905804603F057F95D
:100C3000C021071C0906484603F051F9814689E79F
:100C4000291C281C03F034F9011C301C03F033F973
:100C5000061C91E7A0280020000040410000DC4372
:100C600000442C470000A04100409C467028F53FFE
:100C700038947A3F3894FA3FF06C933E000020415C
:100C8000C637BE37BCFFFFBF0000083600008836FD
:100C9000E6BE3A3B182D4454FB2119408088E540BC
:100CA00010B50A4C2378002B02D06378834200D021
:100CB00010BD2023E25C002AFAD00422E169044836
:100CC000E25403F0F8F82063F2E7C046A0280020C1
:100CD000C637BE37022803D85022024B98541873E7
:100CE0007047C046A0280020F8B5CE464746424C83
:100CF00080B50D1CA16560654049061C03F026F90E
:100D0000002841D13E49301C03F036F9002842D07A
:100D10003C4B3D4F99463D4B3D4E9846FC21281C8F
:100D2000890503F013F900280AD13A49281C03F079
:100D300023F9002856D0301C304903F0BCF8061CBB
:100D4000FE21301C890503F0B3F8051C011C381C7A
:100D500003F0B1F8291C071C6063404603F0ABF8B0
:100D6000291CA063E763484603F0A5F82064FE2031
:100D7000311C800503F099F8291C03F09CF860648D
:100D8000C0BCB946B046F8BD234B244F9946244B0E
:100D9000244E9846C2E7301C03F058F9224A234BF0
:100DA00002F089FB0022224B02F067FB02F090FB6D
:100DB000061C03F055F98146301C03F063F9061C4C
:100DC000FE204946800503F070F8FC218905804625
:100DD00003F085F8C021071C0906484603F07FF898
:100DE00081469BE7291C281C03F062F8011C301C7B
:100DF00003F061F8061CA3E7A02800200000A04132
:100E000000409C467028F53F38947A3F3894FA3F6A
:100E1000F06C933E00002041BCFFFFBF000008368D
:100E200000008836E6BE3A3B182D4454FB21194099
:100E30008088E540F0B5C646202600B5684CA35D25
:100E4000032B00D19CE000D989E0012B00D1A3E065
:100E5000022B00D097E0E16A606A03F026F8A769E8
:100E60006062391C051C03F077F8002800D0A4E06C
:100E70002378002B00D1A9E06668237B720DDB028A
:100E8000991801325205520D9B182C312C33490010
:100E90005B00E31861180420185E0427CF5FC01BB5
:100EA00003F074F88046F002C00A03F06AF8D42117
:100EB000890503F014F8011C404603F010F8804641
:100EC000380003F063F8011C404602F0F1FFA3680C
:100ED000291C9C466644666003F001F8051CA07856
:100EE00003F04FF83F4902F0E6FF291C02F0F7FF3C
:100EF000616B061C02F0F3FFA16C02F0D9FFA16B3D
:100F0000051C301C02F0EBFF216C071C281C02F0B2
:100F1000E6FF011C381C02F0C8FFE16C02F0C8FFBC
:100F2000E16BA064301C02F0DAFF616C061C281C27
:100F300002F0D5FF011C301C02F0B7FF2A49E06423
:100F4000281C03F019F8002818D12849281C02F0A1
:100F5000FDFF00283CD0264880BCB846F0BD042BDD
:100F60003BD1216B0027606A02F09FFF391C051CF2
:100F700002F0F2FF002825D1656279E71D48EBE712
:100F8000A569656274E700256562002B00D06FE7F4
:100F9000002300202370DFE7FE27A16A606A02F0C9
:100FA00087FFBF05391C051C02F0DEFF0028E3D0D7
:100FB00002236762A3553D1C5AE703236762A355CA
:100FC0003D1C55E700236762A355E1E70020C3E716
:100FD000281C02F0FDFF00B2BEE70025656247E76E
:100FE000A02800200000FE4200FEFF4600FEFFC6D3
:100FF0000180FFFFFF7F0000F8B501231F4EA021F5
:1010000034681F4AA340C905885803420AD1012306
:101010001C4EA02134681A4AA340C90588580342CF
:1010200016D1F8BD184F8B5080233C001B01FD18D2
:10103000FFF700FF0004206060600834AC42F7D185
:10104000A022D205944633689B0163441F60DEE70B
:101050000E4F8B5080233C001B01FD18FFF7EAFE6A
:101060000004206060600834A542F7D1A022D205B8
:10107000944633689B0163441F60D2E78C280020AC
:101080000C0400009028002054170020541F00205A
:10109000F0B5CE46474680B506008BB00D006A48D5
:1010A0006A4903F01DFE002380220593F8235202B3
:1010B0005B0202920393C02302A91B0310220700C4
:1010C00006A8049303F0D2FAF822AB02D20113402F
:1010D0001F22324013435E4A0520134309935D4BA0
:1010E000089301F08DFD02F04CFF5B4902F0E3FE36
:1010F000EC21890502F0DCFE804602F09BFF84B201
:101100000023002C0ED0200002F03BFF011C4046C3
:1011100002F0CBFE8721C90502F0E1FE02F08AFF52
:10112000C3B21B0224041C4330000621069400F0C5
:1011300097FB2800062100F093FB681C062100F0B5
:101140008FFB01239846404C320000212000009381
:1011500003F040FE43462A000021200000930133A3
:1011600003F038FE3A00200006AB002103F090FEA9
:1011700042462368394D93431343236080232C0058
:101180001B01EE18FFF756FE000420606060083473
:10119000A642F7D18023324C5B01EE18FFF74AFEDE
:1011A0000004206060600834B442F7D1012003F0ED
:1011B00087FD2C4E04003060012003F081FDA02249
:1011C000294BE4021860294BD2059C461C40192388
:1011D00090468027C1020C4399461C433368244A39
:1011E0009B014344BF001D605A609F601C616446C0
:1011F0002140802433682401DB0219434B46A44676
:10120000012419438301434465441D605A60220050
:101210009F601961336817499A40174B1A60220082
:1012200082400B201A6000F061FC01210B2000F0CD
:101230003FFC336842469C408623DB00D4500BB011
:10124000C0BCB946B046F0BD000020502469001073
:1012500000001040000006400044AC4A5417002033
:10126000541F00208C28002090280020FD0700FF3C
:1012700010002050F90F00100424005010B50C4C41
:101280000C49200001F0D4FA0221052000F0E8FA10
:101290000221042000F0E4FA0023012220000821AA
:1012A00001F054FB0121200001F08CFB10BDC04671
:1012B00000800340127A000043B270B5002B10DBAF
:1012C0004B4C2278002A0BD0E378012B05D8591C0F
:1012D000C9B2E31858700B00E1702179994212D914
:1012E00070BDEF28FCD800230200414CE3700F339F
:1012F0009A4313002070C02A2BD019D90120D02A7C
:1013000010D12071ECE70F23134208D16078A17847
:101310009A43902A44D0B02A28D0802A20D0002393
:10132000E370DDE7E03B5A42534158002071D7E7B4
:10133000A02A18D005D9B03B5A4253415800207119
:10134000CEE71F2398438038434258414000207124
:10135000C6E701202071C3E77B28E0D1254B5878F0
:10136000FFF79EFCDBE702202071B9E74A282FD067
:10137000F2D8472819D04828D1D1080002F006FE3B
:101380001D4902F098FD1D4902F0A9FDFC218905C7
:1013900002F08EFD174B011C586DFFF7A5FCBEE750
:1013A0000029DDD0FFF798FBB9E7080002F0EEFD59
:1013B000114902F080FD011C114802F08DFF0D4B18
:1013C00010499D6D02F08BFD291CFFF78DFCA6E7EF
:1013D0002A2905D9542907D80120FFF77BFC9EE76D
:1013E0000020FFF777FC9AE70220FFF773FC96E7EF
:1013F000085D0020A02800200000FE4200001841E7
:10140000000061430000A04270B5554CA369DB06A3
:101410002AD410221100A36919401A42FAD1226875
:10142000D3B2120621D44F4D29780029EED0EA78A4
:10143000012A05D8501CC0B2AA1853700200E870E7
:101440002B799342E2D80F230B4208D16878AA780F
:10145000994390295AD0B0293ED0802931D0002319
:10146000EB70A369DB06D4D570BDEF2BCED83D4D14
:101470000F22E970190091430A002B70C02925D072
:101480000AD90123D02901D12B71BFE7E03A534299
:101490005A4153002B71B9E7A0291AD005D9B03AA7
:1014A00053425A4153002B71B0E71F229343803BB4
:1014B0005A4253415B002B71A8E77B28CFD12A4BBE
:1014C0005878FFF7EDFB0023EB70CAE701232B717F
:1014D0009CE702232B7199E74A281DD0EDD84728B5
:1014E00022D04828BBD1100002F050FD1F4902F065
:1014F000E2FC1F4902F0F3FCFC21890502F0D8FC54
:10150000194B011C586DFFF7EFFBA8E7002AD8D054
:101510001100FFF7E1FAA2E72A2A1CD9542A16D8AB
:101520000120FFF7D7FB9AE7100002F02FFD0F49CB
:1015300002F0C1FC011C0F4802F0CEFE0A4B0E491E
:101540009E6D02F0CCFC311CFFF7CEFB87E702203A
:10155000FFF7C0FB83E70020FFF7BCFB7FE7C04637
:1015600000800340085D0020A02800200000FE420B
:1015700000001841000061430000A042F0B50021C6
:1015800083B0002004F03CFC01AD00280BD00826FD
:101590000F2702E02C78264207D12900002004F012
:1015A00041FC0028F6D103B0F0BD68783C40FFF75D
:1015B00083FE23000C3B012B09D82300083B032B9F
:1015C00001D90E2CE9D1E878FFF776FEE5E7A87897
:1015D000FFF772FE2300083B032BF2D8F3E7C04667
:1015E00010B503F051FB1F211A2000F039F9002239
:1015F00000211A2000F04EF900211A2000F064F9B1
:101600001F211B2000F02CF9002200211B2000F0DC
:1016100041F900211B2000F057F9E022154CD201BE
:1016200023681340144A13600422144B1A60FC32DE
:1016300023681342FCD0606880B202F0A2FC104B19
:101640002268186080235B015340E022D2011340DE
:10165000094A802113600422084B49001A60054A98
:1016600013680B42FCD0506880B202F08AFC054B34
:10167000186010BD00C0044000D0044000E00440E9
:10168000305D0020345D0020E021F0B5D6464F46A5
:101690004646454AC9011368C0B50B4043490B6033
:1016A0000421434B1960FC3113680B42FCD0414DBF
:1016B00050682C6880B202F064FC211C02F0F5FB3B
:1016C0003D4902F00CFC211C02F0F2FB2860041CD6
:1016D00002F0B0FC394F85B23B8801261A0008326F
:1016E000954203DC2A00083293425BDD80232E4AB8
:1016F0005B0111684B40E021C9010B402B490B6095
:1017000004212B4B1960FC3113680B42FCD02C4B8D
:10171000506899461B6880B2984602F032FC4146F8
:1017200002F0C3FB244902F0DAFB414602F0C0FBA1
:101730004B461860804602F07DFC83B29946214BEF
:101740009A461B881A000832914524DD1E49201C48
:1017500002F0B1FB011C1D4802F0BEFD1A49061C37
:10176000404602F0A8FB1A4902F0B9FBFC218905AA
:1017700002F09EFB1749041C301C02F0B0FB211C38
:10178000FFF7B2FA53464A463D801A80E0BCBA469B
:10179000B146A846F0BD4A4608329342D6DC002E38
:1017A000F4D0D3E70026A1E700C0044000D00440F5
:1017B00000E00440305D0020CDCC4C3DD80F00202F
:1017C000345D0020DA0F002000F07F450000614307
:1017D000000018410000A04200487047D069001086
:1017E000004870476869001070B5002825D00328AC
:1017F0002CD8174B8000C558280004F0DFFFC0B27A
:10180000011C1F2814D8C9B200281CD0002311487D
:10181000821CEC5C01331480DCB20232A142F8D8A5
:10182000C0230131C9B249009B001943018070BD3A
:101830001F21C9B20028E9D105E0C1210548064BA6
:1018400089004380F2E705490248EFE70020EEE710
:10185000E46900109C140020090400000203000049
:1018600010B54024084A83009A181268C0005440FA
:10187000C0222240054CA44663441A60044B9C4697
:101880006044416010BDC04604C0014004D0014026
:10189000004001400B4B80009C46604400290ED163
:1018A00000230431002A00D119008022036852016C
:1018B000594094460C2360440B40036070470C2150
:1018C0000823EFE704C001408000002905D0064B43
:1018D0009C464023604403607047044B9C46402371
:1018E00060440360F8E7C04604E0014004F00140B2
:1018F0008023DB051868000F7047C0460FB400B5A1
:10190000084883B003F040F8049B002B07D005A9DA
:101910001800019102F0B8FE034803F035F80120E9
:1019200002F0CAFEF4690010046A0010EFF31080A0
:1019300072B6034A1368002BFCD0BFF35F8F704769
:101940002C0100D0BFF35F8F0022024B1A6080F39E
:10195000108870472C0100D070B5EFF3108C72B670
:101960000D4D2B68002BFCD0BFF35F8F0724CB08F5
:10197000C618C05C01230C40A3401C000440034275
:1019800007D103433370BFF35F8F2C608CF3108853
:1019900070BD1000FFF7B2FF2C0100D0F8B547462C
:1019A000CE46884680B5EFF3108C72B6214D2C6878
:1019B000002CFCD0BFF35F8F9A422CD8D4080727A5
:1019C000055D061901241740BC402C421FD0072199
:1019D0000127894609E0D408055D06194C463900FF
:1019E0001440A1400C00294211D001329342F2D29E
:1019F00001204042BFF35F8F00220E4B1A608CF330
:101A0000108800280FDBC0BCB946B046F8BD2C4397
:101A100010003470EEE7BFF35F8F00232B608CF370
:101A20001088012040424346002BECD00898FFF775
:101A300065FFC0462C0100D0044A1078431CDBB27D
:101A4000172B00D9102313707047C046DC0F0020FD
:101A500000B5054B83B00100009318221F230348F3
:101A6000FFF79CFF03B000BD086A00105C2800204F
:101A70000021044B044ABFF35F8F02C39342FAD1A3
:101A80007047C046000100D0800100D0054B064AD7
:101A90001360064A136053609360D360136153610F
:101AA000936170478080808000E400E004E400E0FF
:101AB0001F2318401E3B8340002905D0C021044A43
:101AC0004900535013607047802201498B50FAE758
:101AD00000E100E001228240034B1B6813405A1EC4
:101AE0009341D8B27047C04600E100E070B50D00E8
:101AF000EFF3108672B60F4A1368002BFCD0BFF3C9
:101B00005F8F0D4B10309B6884001B590B4A93422A
:101B100003D09D4201D001F019F9074B9B681D517C
:101B2000BFF35F8FBFF35F8F0022024B1A6086F313
:101B3000108870BD240100D000ED00E0C10100104C
:101B4000F0B557464E46DE464546E0B585B0060040
:101B500002911700EFF3108B72B6674A1368002BDF
:101B6000FCD0BFF35F8F0025644B5D579A46002D74
:101B700000DAA4E06B00624C03935B199B0098466B
:101B8000A146C1444B4652469B79103613705D4BBB
:101B9000B2009B68019299580B1B2F2B34D95A4BDA
:101BA000994200D0A4E0039B584A9C46584B654498
:101BB000AD006353434602336519E418554B0121C8
:101BC000043B1B1B1B055B0D13436B80524BEF71DA
:101BD000AB80FF23AB71029BAB604B460B431900FC
:101BE000484B019A9B689950BFF35F8FBFF35F8F9B
:101BF0000022414B1A608BF3108805B0F0BCBB4645
:101C0000B246A946A046F0BD01200A008243D3791E
:101C1000BB422FD845464E46130040491B1B5B4133
:101C20005943090D3A4B63533A4B02356519043B4E
:101C30005B1B1B05354D5B0D2B4373800426B4469F
:101C4000E0444444131F1B1B4C46A17102991B0521
:101C5000A16049465B0D2B43A380314BE7710143E3
:101C60001360BDE75800C01880002018C679BE4236
:101C70002BD902000623D356002BF3DA101D82461F
:101C80002848804604267642B446E14450464E46F3
:101C9000361A3005400D824656461C48957106435B
:101CA0009680039A944665441D4AAD0064192260EB
:101CB0004246A371029BA280E771A36090E701F006
:101CC00045F8002553465D5754E7101D824690881D
:101CD0004005001584464046D4446646043020182A
:101CE000301AE0260005400D360230438046C9E731
:101CF00001F02CF857E7C046240100D0465D0020D3
:101D0000E00F002000ED00E0C101001000E0FFFF47
:101D100000A1FFFF1010002001BDFFFFAAAA0000D4
:101D20000148804701BD0000F0B5DE4657464E46EB
:101D30004546E0B50C0083B0EFF3108972B65F4AF8
:101D40001368002BFCD0BFF35F8F5D4B9A680300D4
:101D500010339F00D5595B4A904695423DD0A5422D
:101D60004ED0594EAA1B2F2A37D8584A934612688C
:101D70009446012261469246824011401F22104043
:101D800052468240924601918022514658468150E7
:101D9000BFF35F8FEFF305829346002A32D1012310
:101DA0002A009A439068844208D17CE04B005B187B
:101DB0009B00F318986884422ED01A0006215156D1
:101DC0000029F3DA84424DD0019B002B1FD0C022A2
:101DD00051463E4B520099501960394B9B68DD517A
:101DE000BFF35F8FBFF35F8F0022344B1A6089F31C
:101DF000108803B0F0BCBB46B246A946A046F0BD71
:101E00001500EAE79342CAD000F0A0FFC7E780239D
:101E100051462E4AD150E0E706215956002922DBCF
:101E20004A005018800034188046A0689860E07915
:101E3000D871062020569871002825DBA488F01A56
:101E40006405241544440019E0240005400D2402D3
:101E50002043988052181E4B9200B6181A781970B9
:101E6000B271B1E71300594600290FD1FF319171CA
:101E70001849918016490A789A71174A9B1B5B4151
:101E80005A43120D0A709FE71448E2E7144A1549B5
:101E9000D21A083A5002400D014399801249520863
:101EA0000A43DA8090E70621515613000029B7DA79
:101EB0005A46002AEAD14546DCE7C046240100D054
:101EC00000ED00E0C1010010E00F002000E100E0A3
:101ED000465D002001BDFFFFAAAA000001BD000071
:101EE0001A10002000F0FFFF00F8FFFF70B501247A
:101EF0000443EFF30581EFF3108C72B6214A1368A7
:101F0000002BFCD0BFF35F8F1F4B05001F4AED1A5B
:101F10006D416A43120D1E4D8900AE6852B276586B
:101F2000A6421CD00621595691421CD01221595666
:101F3000914222D01E215956914220D02A21595631
:101F40000324914210D0134B19781A708171BFF39A
:101F50005F8F00220B4B1A608CF3108870BDAB684A
:101F60000D4C5C50EFE700246100091989005B18F3
:101F7000FF21997109499980E5E70124F4E70224DA
:101F8000F2E7C046240100D0E00F0020AAAA00001A
:101F900000ED00E0465D0020C101001001BDFFFF23
:101FA000024B9C4661448900016070474000003448
:101FB000F8B5134D134E2C00FF27B5421ED22368EF
:101FC000002B0FD0FFF738FD01002800FFF7E8FFD6
:101FD000A780BFF35F8F0834B4420FD22368250077
:101FE000002BEFD1FFF728FD01002800FFF7D8FFF5
:101FF0002771BFF35F8F0834B442EFD3F8BDC046FA
:1020000098100020A810002010B50400FFF714FD60
:1020100001002000FFF7C4FFFF232371BFF35F8F90
:1020200010BDC04610B504000120FFF711FD044BA0
:102030009C46604480002060BFF35F8F10BDC046A7
:10204000400000340A4B1968EFF3108072B60A683A
:10205000002AFCD0BFF35F8F1B68BFF35F8F0022A5
:102060001A6080F3108840BF002000217047C046EE
:102070002C5D0020F0B5DE4657464E464546E0B59D
:1020800085B0EFF30582032313409A0011000392F9
:10209000B64A5258904601229A409146B44B1A6073
:1020A0004B46B4484363434608229B5E9A46002B46
:1020B0003DDA43469B881BB2002B00DBA1E0434680
:1020C0009B79002B00D0F3E0434608241C5F002CD2
:1020D00023DB42465269630094461B19DB006344CC
:1020E0009C68DD68631C00D10FE1A2480399844617
:1020F0006144826A0B69A61A9B1A9E4215D34A460E
:10210000036A1A4211D09B4800F046FB241A8D4105
:10211000002D02DCC4D1002CC2D040BF05B0F0BC01
:10212000BB46B246A946A046F0BD0C61EBE742466D
:1021300052695B0093465344DB009B445B469E68B8
:10214000DF6800F029FB801BB9410029B1DB002FBB
:1021500000DAE5E05B46884A1B69934200D1D8E08B
:1021600041465A460820085E5288000410435A46E9
:102170005169984704000D0023002B4300D1CFE0A4
:10218000002D00DBE8E0361BAF4134003D005B462C
:102190009C60DD600021595E002900DA89E7434632
:1021A0005B6922009C462B0048004018C000604438
:1021B0008668C768921BBB41002B00DA79E743466B
:1021C000664602000094019519810CE07B00DB1942
:1021D000DB00F318009801999C68DD68001BA94199
:1021E000002904DB1A000023D75E002FEEDA5B46DD
:1021F0001F805346138043469B881BB2002B00DA96
:102200005DE743461A69EFF3108172B61368002B3D
:10221000FCD0BFF35F8F43469B8842461BB29A4671
:1022200001235B4293801369BFF35F8F00221A6022
:1022300081F310885346002B00DA40E743465B6980
:102240009C46082343449B4653465F0043465744FD
:10225000FF0008229A5E67445E46BC68FD68002A5B
:1022600019DB3B000094019567469C4604E01E0084
:102270000023F25E002A0BDB0098019953009B18A3
:10228000DB00FB189C68DD68001BA9410029EEDA21
:102290006346BC461F005346338000217B5E3A8074
:1022A0009A46002BD0DA43469B79002B00D10BE7EE
:1022B000002342469371434646460821595E08363C
:1022C0004B1C00D129E747468C46556902E00600C1
:1022D0004B1C17D04B005B18DB00E8180A00E95EC6
:1022E00043881BB2002BF2DA01235B42DC178360C8
:1022F000C4606245ECD031803B89944603803A81CA
:102300004B1CE7D1B8466446E1E66B1C00D0ECE616
:10231000F9E65B465C69200023699847002821D1D3
:102320005B4642461B8813811269EFF3108372B635
:1023300011680029FCD0BFF35F8F4246594652888E
:102340000A804246514651801269BFF35F8F0021D7
:10235000116083F31088ACE6064800F01DFA2418DB
:102360004D4114E76568246806E7C046105D00200B
:102370003C700540004005407520001070B52E4CA3
:102380002569002D04D00A212C48FFF709FE70BDF5
:102390002B4E0321300000F0F5F9E660FFF74CFB0F
:1023A000284B03229C46D02322701B061B68012168
:1023B0006370254B6044A3600F23800020610220DE
:1023C000638063694942A1801980023119864731CF
:1023D0001D83585218315A5275325C39995218324D
:1023E0000131995218320131995218320131995202
:1023F000083518329D520231183299521832013183
:1024000099521832013199521832013199521832C9
:10241000013199521832013199520C4B0C49DC6050
:1024200001303562FFF762FB01210320FFF740FB1B
:10243000084B1D60A7E7C046281000202C5D002037
:102440000040054040000034FFFF1000105D0020F8
:10245000752000103860054070B5C646010000B513
:102460000469EFF3108C72B620680028FCD0BFF32B
:102470005F8F02200D5E48696C0080466419E4009D
:102480004444002D01DB208848800869BFF35F8F3A
:10249000002606608CF31088002D30DBE360638833
:1024A0000598013320615B0406985B0CA2606061B3
:1024B0001A1C002B21D090B22B04628018430A69A9
:1024C000EFF3108672B61368002BFCD0BFF35F8F5A
:1024D0008B8823808D800B69BFF35F8F00221A6089
:1024E00086F310880B7801329A40CB6805498C46F8
:1024F00063441A6040BCB04670BD0122DBE7012096
:102500004042F7E73C20000010B543890A1493428B
:1025100033DD53009B184269DB0094460469634431
:10252000EFF3108C72B62268002AFCD0BFF35F8FE5
:102530005A88090494B2090C8A4208D00369BFF38F
:102540005F8F00221A608CF31088002010BD80225B
:10255000120214435C80012302698371BFF35F8F11
:10256000002111608CF31088054902788C46934055
:10257000C268012062441360E8E70020E6E7C04635
:102580003C200000F0B504000D0006267642F71747
:10259000C64636196F4100B582B08F4214D811D0AB
:1025A00000F002F932003B00121A8B41002B15DCBF
:1025B000002B44D02000290000F02AF902B080BC92
:1025C000B846F0BD8642EBD90026002700F0ECF8B3
:1025D00032003B00121A8B41002BE9DD00F0E4F8D9
:1025E00032003B00121A8B41002B0ADB00230193BF
:1025F000144B3200009314483B00FFF72DFF0028D6
:10260000D8DBB0460026BC46104A114F7B6A9C4579
:1026100004D8B96A8845CDD99C45CBD11168EFF370
:10262000108072B60B68002BFCD0BFF35F8F13686D
:10263000BFF35F8F1E6080F3108820BFE6E7002A9B
:10264000B8D0CBE745200010281000202C5D0020DA
:102650000040054070B5060000F0A6F8FA2204001C
:102660000D00002330000021920001F001FC001950
:102670006941002902DBFFF785FF70BD0120014998
:102680004042F8E7FFFFFF7FF0B5CE46474680B5F2
:1026900004000D0083B0EFF30587002F0DD0364AFC
:1026A0000020536A8B4203D3926A0130A24250D376
:1026B00003B0C0BCB946B046F0BD304B9846DB68AD
:1026C0009946434648461E7800F066F80B00494696
:1026D00002000436B600715820008E1A2900801AB4
:1026E00099418F4211DC0ED020BF234A0020536A4B
:1026F000AB42DDD3926A0130A242D9D2E81A421E1F
:102700009041C0B2D4E78642EED900F04DF82200E5
:102710002B00121A8B41002B20DB00230193184B56
:102720002200009340462B00FFF796FE011E15DDA8
:10273000114B2E005A6A95421CD89B6AA34217D3AC
:102740004046FFF7E1FE0C4A0020536A9E42AFD894
:10275000D0E7581A421E9041C0B2A9E7064A0020AD
:10276000536AAB42A4D3926A0120A242A0D2C5E729
:102770009542E5D120BFE3E7004005402810002046
:102780004520001010B5024A0248FFF7E5F810BDD9
:10279000246A0010602800200300416A0A00986A39
:1027A000596A8A42FAD17047034B596A0A00986AFB
:1027B000596A9142FAD170470040054070B5040053
:1027C0000D00124A536A1900966A536A8B42FAD175
:1027D0003000190024184D41AB4211D80ED02B0007
:1027E0000A494A6A9A42FCD307D1084A02E0516A70
:1027F000994202D1916AA142F9D370BDA642EED9A5
:10280000012301246442E5175B42E9E700400540EB
:10281000064A536A9942FCD807D1044B02E05A6A2F
:10282000914202D19A6A8242F9D370470040054032
:10283000F8B5040006200D0000F0E2F9002842D0AF
:10284000364B3749E21853425A418023DB039C46FA
:102850009205344B62441A60334B1A6010000B68C7
:102860009843FBD12D4B8021E3185A4253412F4A04
:102870005B0049009952062000F0C2F92900C0000F
:1028800000F0AEFB0130C3091ED140270122626275
:10289000A362266BF30722D4E36A254B0620E518D2
:1028A00000232B60266300F0ABF93900800000F0B4
:1028B00097FB7022E36A5A407E2313402B601D4B26
:1028C00023630323A364F8BD1B4A93421ED900234C
:1028D0001A4A1B4F6262A362266BF307DCD5194BC1
:1028E000144AE3181A60656AA26A0620AD01AD18A1
:1028F00000F086F9144900F073FBAD0201002800D6
:1029000000F06EFB0021FFF759FFC5E74006800E7F
:102910009F011A003F180300B9E7C0460080FCBFC2
:1029200008C0004000E0004000F00040385D00209A
:102930002C10000001030000FEFF0000FFFF00005C
:10294000C0FF3F00303000004E0E00000539013A54
:10295000F8B5D2004C0105001443002B05D002222B
:102960002243012B24D105331C432E6BF30708D4DB
:10297000EA6A104B62406E24EB1814401C602E6310
:10298000F8BD0D4B0D4AEB181A606F6AAA6A062053
:10299000BF01BF1800F034F9094900F021FBBF0264
:1029A0000100380000F01CFB0021FFF707FFDFE704
:1029B0001400DAE72C1000003030000001030000A2
:1029C0004E0E0000F8B54B1E9941066B05000C0138
:1029D000F30708D41023E96A4C401C400D4BEB1858
:1029E0001C602E63F8BD0C4B0C4AC3181A60476A72
:1029F000826ABF010620BF1800F002F9084900F002
:102A0000EFFABF020100380000F0EAFA0021FFF7F8
:102A1000D5FEDFE72C10000030300000010300007D
:102A20004E0E0000F8B5DE464E4657464546E0B528
:102A30008B4605000A991800160000F0D1FA0A9B8F
:102A40006C001F02324B64199C46A4006444636806
:102A500081469F4200D967602B1FDBB29846012B4D
:102A600030D9C02380229B01E31812011A60294B40
:102A7000AD0059599A4600291BD12268760172404F
:102A8000E0268023164042465B01E3181E60012ABF
:102A900030D9802380229B01E31812011A6053462B
:102AA0004A4667605A51F0BCBB46B246A946A046AA
:102AB000F8BD586900F094FA431C5800C018033858
:102AC000FDD2DAE75B46012BCBD1C02303229B0169
:102AD000E3181A60023AA3681A42FCD0E023226885
:102AE000760156401E4080230A4A5B019246E31855
:102AF0001E60AD005A462168514003220A401A6008
:102B000001225B469A40A3681A42FCD0C1E7C04646
:102B10000080004064280020F0B546464F46D64667
:102B2000C0B51F00344B44009C462418A4006444E4
:102B3000636888461600FF2B02D880235B00636021
:102B4000031FDBB29A46012B30D9C02380229B01A0
:102B5000E31812011A60294B85005959994600293A
:102B60001BD1226876017240E0268023164052462F
:102B70005B01E3181E60012A30D9802380229B016B
:102B8000E31812011A6080235B0063604B465F51BB
:102B9000E0BCBA46B146A846F0BD586900F020FA3C
:102BA000431C5800C0180338FDD2DAE74346012B16
:102BB000CBD1C02303229B01E3181A60023AA36819
:102BC0001A42FCD0E0232268760156401E40802342
:102BD0000A4A5B019146E3181E608500424621685F
:102BE000514003220A401A60012342469340A268E2
:102BF0001342FCD0C1E7C04600800040642800209A
:102C0000014B8000C058704764280020F8B50400CC
:102C100020481D0017000E0000F0E2F90100380006
:102C200000F0DEF9069B29041B0319432368002BDF
:102C30001EDB194B194DE21853425A4180235B01A8
:102C40009C461203164B62441A60164B1A6017001A
:102C50002B689F43FBD1144B2660E2182123A06010
:102C600013602368002BFCDA0823E1601360F8BDD1
:102C70003F2322681340B342DBD1A3681B051B0D21
:102C80008342D6D1EE22E368D20213408B42D0D1E8
:102C9000EDE7C046001BB7000040FDBF08C0004084
:102CA00000E0004000F00040043000008023024AB1
:102CB0009B000B43D362704700800540142310B57E
:102CC0000100188804331B88984710BD162310B5DF
:102CD0000100188802331B88984710BDF8B5474695
:102CE000CE4680B50F1E19D0142399460433040034
:102CF0000025012698464B461888434621681B88C4
:102D0000984701C4431E9841013540420640AF42F6
:102D1000F1D13000C0BCB946B046F8BD0126F8E795
:102D2000AA23064A1B0113608D235B00D36004496C
:102D3000044B19605368002BFCDA704700400240D6
:102D400000B0FA00006002407047C04610B501486C
:102D5000FEF7D4FD486A001070B5074D074EB54226
:102D600009D20024013E761BB60808CD98472300FF
:102D70000134B342F9D170BDE06800101C69001045
:102D800070B5074D074EB54209D20024013E761BAF
:102D9000B60808CD984723000134B342F9D170BD7D
:102DA000146900101C690010054B064A06491A6098
:102DB000064A074B1A6010000B689843FBD1704716
:102DC00000E00040BFCDFBFE08C00040FE7F3C009D
:102DD00000F00040044BDB6C002B03D18022034B3E
:102DE000D2021A607047C046000011504C201150AA
:102DF000044A054B1A60054A1368DB018033FBD196
:102E00007047C046FFFFFF0100F0004008C00040CF
:102E10004022034B9A675A671A67DA667047C046C2
:102E200000F0014010B5FEF723FE10BDF8B52D49A6
:102E30002D4C2E4D641AA6103200302E00D93022AF
:102E40002800920001F012FCBC2C41D80123711C17
:102E500008009C46264A30293DD92F272C196407A3
:102E6000E30FBF1B052F19D9302917D8002B36D0F7
:102E7000B1006A506146CC1AF3189B006108EB1848
:102E8000C900C9181A605A6008338B42FAD101236D
:102E90002100994346188C421AD0711CB300EA50A5
:102EA000302915D089006A50B31C2E2E10D09B00FB
:102EB000EA50F31C2D2E0BD09B00EA50331D2C2E14
:102EC00006D09B00EA50731D2B2E01D09B00EA50C8
:102ED000084B9D60F8BD2F339B1B9C46BDE730001F
:102EE000C8E7C04600010010C0010010000000202B
:102EF000C101001000ED00E0002310B5294C82B0A4
:102F0000A367FFF70DFF0122274B1A60636C012BAB
:102F1000FCD10322254B1A60224A936B012BFCD172
:102F2000013300930121224A22480433FFF76EFE49
:102F3000052301210093204A2048FFF767FE002265
:102F4000022104201E4BFFF7E7FD0022012105208E
:102F50001C4BFFF7E1FD0022002107201A4BFFF771
:102F6000DBFD002200210820174BFFF7D5FD802351
:102F7000DB000093002200210920134BFFF752FDD4
:102F80000022104B00210620FFF7C6FD0420FFF7AA
:102F900037FE0E4900F024F801000020FFF786FEFE
:102FA00002B010BD008000403CB0004030B0004096
:102FB000002F685900800240008C864700C0024004
:102FC000001BB70040597307006CDC0240420F0041
:102FD00001480421014B184740100020DD2C00104F
:102FE000114A936F9B0813D210665166002905D0D1
:102FF000FFE7FFE7FFE7516F106F704704B5002848
:1030000001D00020C04303F02BFC002104BDC046CA
:10301000F0B5146E556E576F166FFFF7E5FF146627
:10302000556657671667F0BD000000D094464A4ABF
:10303000926F9208624601D228E0C046F0B5464E33
:10304000346E756E776F366F00F020F89446424A02
:1030500014665566576716676246F0BD94463E4A49
:10306000926F9208624601D254E0C046F0B53A4EE3
:10307000346E756E776F366F00F04CF89446364AB2
:1030800014665566576716676246F0BD002B24DB51
:1030900011D000293EDA00B5C943404200D10131C8
:1030A00000F038F8C943404200D10131DB435242BD
:1030B00000D1013300BD002AEBD1002801D1002945
:1030C00005D00020C90FC90701D1C043410800B590
:1030D00003F0B6FB0022002300BD00B500290ADB87
:1030E000DB43524200D1013300F014F8C94340429F
:1030F00000D1013100BDC943404200D10131DB4361
:10310000524200D1013300F005F8DB43524200D1B6
:10311000013300BD002923D1002B18D1002A0CD087
:10312000BC460D4F38667A6600210023FFE7FFE7B3
:10313000FFE77A6F386F67467047002801D007486D
:10314000010000B503F07CFB0022002300BD02005B
:103150000B00002000217047000000D0FFFFFFFFA0
:10316000002B00D0BFE0130C28D1002AE7D080B498
:10317000114F39667A66FFE7FFE730B4040C7B6FC6
:10318000396F1B0423433B667A66FFE7FFE7FFE7DF
:10319000C04684B27B6F3D6F1B0423433B667A6657
:1031A000FFE7FFE7C04600232C042D0C7A6F386F31
:1031B00000196941B0BC7047000000D0F0B59446DA
:1031C0000025140E01D112020835140F01D112018D
:1031D0000435940F01D192000235D40F01D1520071
:1031E0000135D40B0134254F7C66254C3C660E0C12
:1031F00093B2FFE7FFE7FFE73C6F6643360C7703C8
:10320000BE467343DF0B5B04C01AB941130C734312
:10321000DB18C91ACE086643360CB64493B2734322
:103220001F0F1B01C01AB941130C73431F0B1B0561
:10323000C01AB941860D8F023E436643360C092DF4
:1032400024DB520A7243801A7703460A6643360C1F
:1032500016235B1BDE40DF40BF1964466643821BBA
:103260007046043506330100D940A840C01900D388
:103270000131A24206D20023F0BD0000000000D0C0
:10328000FFFFFFFF121B0130F3D3F1E709277F1B7C
:10329000FE406446A2B27243801A00D20139220C69
:1032A0007243130C1204821A99410B0070460435C4
:1032B00013370100F940A840801900D30131002BD9
:1032C00002D1A2420AD2F0BD013000D30131121B5B
:1032D000FAD2013BF8D1A24200D2F0BD013000D3B6
:1032E0000131121BF7E7F0B51C0C00D080E00CB4E4
:1032F00000251C0A04D11B02160E334312020835A6
:103300001C0B04D11B01160F3343120104359C0B17
:1033100004D19B00960F334392000235DC0B02D19F
:1033200092185B4101351C00971864410134464FE7
:103330007C66464C3C660E0CFFE7FFE7FFE7C046A5
:103340003C6F6643360C7703BE4697B27743C01B8B
:1033500000D20139C01B00D201399FB27743C91B8B
:10336000C91B170C77437E04FF0B801BB941CE08A5
:103370006643360C0C2D33DBB644120B1F053A4363
:103380001B0B97B27743C01B00D201399FB2774322
:10339000C91B170C77433E043F0C801BB941860DB7
:1033A0008F023E43664329277F1BFE400C3D774634
:1033B000AF40BF1930BCA2B2ABB272437343801AA4
:1033C0009941220C7243130C1204801A9941020095
:1033D0000B000137001BA941F9D2781E0021F0BD76
:1033E0000C277F1BFE4077467F0BAF40FF19E0E7BD
:1033F00000245D1C07D0144F7D663966FFE7FFE7A8
:10340000FFE7FFE73C6F95B29EB265436643401B02
:10341000B141150C1E0C6543664336042F0C3E4328
:103420002D04401BB141994204D202000B00200040
:103430000021F0BD01D19042F7D3801A99410134A7
:103440009942F2D3F6E70000000000D0FFFFFFFF33
:1034500048404140484018B41B4B5B68FC46019310
:1034600008BD04DFEB35001018B4174B1B68FC4691
:10347000019308BD00DFF53500109446134A926FA2
:10348000920809D2624618B40F4BDB68FC460193E0
:1034900008BD0CDFAD3800100C4AF0B5146E556E47
:1034A000576F166F6246FFF7EEFF084A14665566BF
:1034B00057671667F0BD18B4034B9B68FC46019331
:1034C00008BD08DF5137001028120020000000D08E
:1034D00018B4044BDB6FFC46019308BD7CDF5D3AFA
:1034E000001000002812002018B4044BDB6CFC46CE
:1034F000019308BD4CDF093C001000002812002099
:1035000018B4044B1B6DFC46019308BD50DFA53C6D
:103510000010000028120020132370B51D78012D23
:1035200019D014DD1E48FFF7D1FB06001D48FFF738
:10353000CDFB1D4C80223100200001F097F8022DB8
:1035400006D01A48FFF7BAFB194B186070BD164C2D
:10355000184BA364F5E7174B134C23606360A3601B
:10356000E36023616361A361E36123626362A36239
:10357000E36223636363A363E36323646364A36419
:10358000E36423656365A365E36523666366A366F9
:10359000E36623676367A367E367A364D1E7C04675
:1035A0005344000053460000281200204C33000012
:1035B000285D0020B935001007B5604601880A0A69
:1035C0000230DF2AFAD1C9B2820804D302884088C7
:1035D0000004104300E00068014A5050039007BD0A
:1035E000281200200FB403BC0CBCF0B50124E40782
:1035F000634000E0F0B50C0DCF0F661E3605891B49
:10360000640503D3C943404200D30131640D03D0A4
:10361000661CF60A07D0E41B00207F00791C89078E
:103620008912803C24031D0DDF0F6E1E36059B1B87
:103630006D0503D3DB43524200D301336D0D03D03C
:103640006E1CF60A07D0ED1B00227F007B1C9B0737
:103650009B12803D2D032F1B661B58D4A446202EA1
:1036600046DA20371400BC401D00BD40F240334113
:103670002A4380185941CB0F05D0C943C0430022CB
:1036800064425041514162464D0D28D10D0D07D184
:1036900000281FD0241940414941013A0D0DF9D0AD
:1036A000640006D3013000D30131002C01D1400861
:1036B0004000013A0BD4941CE40A04D112051144D1
:1036C000DB071944F0BDD907204B194300E0D907A7
:1036D0000020F0BD0029DDD1002CDBD1F0BD01328E
:1036E000C6074008CD0728434908002EE1D0D9E796
:1036F0003C2E29DA203E40371400BC4000D0012483
:10370000F24014431A00BB401C43D317ACE7AC464D
:10371000202F08DA20360400B4400D00B540F840F0
:1037200039412843A5E73C2F0CDA203F40360400FE
:10373000B44000D00124F84004430800B1400C43D9
:10374000C117EAE710001900002494E70000F07F99
:10375000F0B50C0D661E3605891BE60A6405640D7E
:1037600002D0651CED0A04D0002001210905803C2F
:103770002403A4461C0D671E3F05DB1BE70A6405F6
:10378000640D02D0651CED0A04D0002201231B0544
:10379000803C24037740644497B484B296B2744367
:1037A000070C7E43150C6F4380B26843361802D372
:1037B000012000043F183004350C00197D41844677
:1037C00088B29AB250430C0C62431F0C7C438EB2F9
:1037D0007E43921902D301263604A4191604170C4D
:1037E0003618674101BC81B29AB25143040C62435E
:1037F0001B0C5C4380B25843121802D30120000412
:1038000024181004130C401863412D185E41002049
:10381000474106BC88B293B258430C0C6343120C68
:10382000544389B251435B1802D30121090464183F
:1038300019041A0C091862416D18564100204741BD
:1038400018BCF902720D1143F0026A0D1043ED022B
:103850000A0D03D16D1940414941013B124E9B1B9A
:103860007600B3420ED26D0007D3013000267141BD
:103870006646354301D1400840001B05C918E407DE
:103880002144F0BD0BDA013306D1013004D10131FE
:103890004F0D01D04908F2E7E1070020F0BD0136E5
:1038A00031050020EBE70000FF030000F0B51C0D20
:1038B000671E3F05DB1BE70A6405640D02D0661C2A
:1038C000F60A04D0002201231B05803C2403D025E6
:1038D0002D060026F6432E661E096E66CE0FF619DB
:1038E000B44649004F0D02D07E1CF60A03D00020DA
:1038F0000021403F3F033E1BB600B444013F7F051B
:10390000C91B49082E6F013676089C02950D254388
:103910007543ED137543AD1301356D10F603761B3A
:103920000CB4CC02450D2C43A2B2B3B25A43270CBF
:103930007B43350C6F43A4B26C431B1902D30124A3
:1039400024043F191C041D0CA4187D4124196D4149
:10395000009A91B2ACB26143170C7C432B0C5F43CD
:1039600092B25A43A41802D301221204BF182204AF
:10397000230C52187B41019C6C431B19520ED90138
:103980000A434401A01A81B2B2B2514303145A430C
:10399000360C734387B27743D617D21900277E417E
:1039A00036049B191704160C7F185E417316ED1828
:1039B000F301002680337541A90F06D16400690A1E
:1039C000E8055B0A184309D22FE0042294448033AF
:1039D0007541A90AA8059B0A184326D340414941CD
:1039E0002404009A019B0D005543641B4343E41AD1
:1039F00095B286B27543170C7E43030C5F4392B2B7
:103A00005A43B61802D301221204BF183204330CF1
:103A100052197B4152429C41002C02D400220130B9
:103A200051414008CA071043490802B06246D7070F
:103A30009210084BD218084B9A4203D212058918EB
:103A4000C919F0BD0020002A01DC3900F0BD0133A6
:103A50001905F5E7FD030000FE0700004A00520DBE
:103A6000144BD21A13DDFF2A1EDAD205CB0FDB0767
:103A70001A43C300400F0903490A084310435B007F
:103A800001D301D0013070474308FBD2704702D008
:103A9000C80FC00770470A0312130132F8D1420F52
:103AA000072AF5D1012200E0FF22C80F000280188A
:103AB000C00570478003000000210A00002104E0D7
:103AC00000210A00C11704E00022002306E0C046DE
:103AD0000022CB1758405940C01A994130B5184CB4
:103AE000A21A002903D1010010D00020203A4C1561
:103AF00012D104D2013A001849414C0DFAD3114CAD
:103B0000A24204D212058918DB07C91830BDD2437E
:103B1000520D00200021F5E703D4013A0018494175
:103B2000FBD50B324405C00A4D052843C90A640081
:103B300003D0002460416141E1E7E0D34408F8E7A5
:103B400032040000FE0700000A0DCC0F531E1B05B7
:103B5000C91A520503D3C943404200D30131520D63
:103B600003D0531CDB0A07D0121B00206400611C29
:103B700089078912803A1203014BD21A704700005C
:103B8000FF030000023225D40C2A1CDA1125AD1ADD
:103B90000B002B41083207350600EE409040914063
:103BA0003143F0CC63431A1500235A415543564321
:103BB0005743BF02F412760576196741ED177F1956
:103BC000801BB94170470C220020C9174900013100
:103BD0000905DBE70902030E1943000253422032B4
:103BE00008D40C0019419440D84020430022504191
:103BF000514170470800C917203B2032F1D5002001
:103C00000021002270470000F0B5FFF79DFF54A48B
:103C1000FFF7B8FF002904DA204C214D0019694153
:103C2000013A04B4012752A6002201239B0730CE9B
:103C3000B446001BA9410BD47E4220361D003D41F5
:103C40001C00B4401600FE40344362416B4101E069
:103C50000019694166460137212FE8D185B29EB22D
:103C6000754307147E43190C4F4384B24C43F1173C
:103C700036190024614109047F183404310C641999
:103C80007941A40F8800204389178018594104BC4A
:103C900052423E32FFF71DFFF0BD00006BDE73F4B1
:103CA000FD855C2CF0B54F0050D27F154ED001370A
:103CB0004FD0FFF749FF04B44902C20D114340023F
:103CC00001272BA6B446002200237E4220360D0099
:103CD0003D410C00B4400600FE40344344414D4198
:103CE000AE0F05D120002900664630CE121BAB4135
:103CF0000824A4440137212FE7D189008910121824
:103D00004B4180BC17A413CC0137784379437C43E3
:103D10004F05C912CD17C0196941A702A415CD17C7
:103D2000C9196C41DD17801859416C413E22CD17ED
:103D3000AC4208D000090E07304309092607314379
:103D40002411043AF3E7FFF7C4FEF0BD0249002056
:103D5000F0BD02490020F0BD0000F0FF0000F07F40
:103D6000AAB800006BDE1300A3EF0F0021170B00B1
:103D7000F34B98BFEC23F319D6104DCDE3FB470E60
:103D80007AB9BC8ADBC18907CC542C021846E103FE
:103D9000053083E7B029F8011E1FE0874505FE00C6
:103DA000249E41ACA9807F008117624515E03F0049
:103DB000E610ABA902F81F008858455500FE0F0019
:103DC000C4AAA90A80FF070056455501E0FF030079
:103DD000ABA92A00F8FF010045550500FEFF0000D1
:103DE000AAAA0080FF7F0000551500E0FF3F0000F9
:103DF000AB0200F8FF1F0000550000FEFF0F00009F
:103E00000B0080FFFF0700000100E0FFFF03000040
:103E10000000F8FFFF0100000000FEFFFF000000AF
:103E20000080FFFF7F00000000E0FFFF3F00000078
:103E300000F8FFFF1F00000000FEFFFF0F00000062
:103E400080FFFFFF07000000E0FFFFFF030000000E
:103E5000F8FFFFFF01000000FEFFFFFF0000000071
:103E60000000008000000000000000400000000092
:103E700051434343C9188C46110C83B24B4310B4D1
:103E8000040C614392B280B2504362431C041B0C89
:103E9000001910BC59411304120CC018514161445F
:103EA000704700004840414048400E4B5B6818474F
:103EB0000C4B1B6818470C4A936F9B0802D2094BA6
:103EC000DB681847F0B5146E556E576F166FFFF725
:103ED000F6FF054A1466556657671667F0BD014B35
:103EE0009B68184728130020000000D007B5484001
:103EF0004140484001E0C04607B54200120E03D0E1
:103F0000FF2A03D1420218D8C00DC0054A00120E84
:103F100003D0FF2A03D14A020FD8C90DC9050122D7
:103F2000414005D4414001D5814207BD884207BDCB
:103F30000143491801D0C043001807BD00B5FFF781
:103F4000DBFF01D0002000BD012000BD00B5FFF760
:103F5000D3FF804100BDC04600B5FFF7CDFF01D9BA
:103F6000002000BD012000BD00B5FFF7BFFF01D953
:103F7000002000BD012000BD00B5FFF7B7FF804164
:103F800000BD491A002807D108467047C10FC9076C
:103F900000D54042002817D0F44603B40B4B1B68F1
:103FA000984706BC81409E384042803107D20B06BC
:103FB00007D04900490AC005104308436047013053
:103FC000F8E7490A8902F5E770470000285D0020FC
:103FD00041000A0E80231B067E2A0BDD9E3A0BDA77
:103FE000C1174002400818435242D04049000131F5
:103FF0004843704700207047C00FC0180138704711
:10400000C0420DD300B540004008002100F012F876
:10401000002801D4404200BD8020000600BD000001
:10402000034BDB69FC4618471CDF09460010000003
:1040300028130020014B5B6A18470000281300205A
:10404000014B1B6B1847000028130020034BDB6F4C
:10405000FC4618477CDF2146001000002813002092
:104060004100090E862902DA044BDB6B184704492C
:1040700000B500F0ADFA02BC8E46F5E7281300202B
:10408000DB0FC9404100090E862902DA044B1B6C84
:104090001847044900B500F09BFA02BC8E46F5E7CC
:1040A00028130020DB0FC940132310B512481C78D9
:1040B000FEF70CFE0100012C0AD003DD80220F4820
:1040C00000F0D4FA0E48FEF7F9FD0E4B186010BD53
:1040D0000A4C5422200000F0C9FA0B4B6365A3651B
:1040E000E36523666366A366E36623676367A36786
:1040F000E3672362E361E5E75346000028130020ED
:104100004C330000285D0020DD450010F0B5D64698
:104110004F4646460C00C0B5051C012953D0CE0FB2
:1041200076187610012E46D00327CA1717407F183D
:10413000BF10012F37D0072313405B18DB109846C0
:10414000012B2BD00F2313405B181B119946012B19
:104150001BD01F2313405B185B119A46012B0BD019
:104160003F210A4012199111FFF7D0FF011CFFF700
:10417000B6FE5346DB072FD4011CFFF7B0FE4B46BB
:10418000DB0702D5291CFFF7AAFE011CFFF7A7FEDB
:104190004346DB0702D5291CFFF7A1FE011CFFF7F0
:1041A0009EFEFB0714D4011CFFF799FEF30702D50E
:1041B000291CFFF794FE011CFFF791FEE30702D5CF
:1041C000291CFFF78CFEE0BCBA46B146A846F0BDFC
:1041D000291CFFF784FEE6E7291CFFF780FECBE7EA
:1041E000F8B50400061C0D1C002817DA4B001B0E46
:1041F0007F3B0ED41722D31A0BD401210A009A4018
:10420000013A2A4205D1172B28D02A00DA40114260
:1042100024D180231B069C466444261C281CFFF7DF
:10422000D7FEE20D07000100002A22D0FF2A20D08D
:1042300064021ED12748874202DB3800FF2F41DC91
:104240007F3A504303007F33002B3DDDFE2B3DDCE6
:10425000FE239B059C46C005604409E080231B06A5
:10426000E018291CFFF7BCFF80231B069C46604416
:10427000F8BD002F10D03B002033402B0FD8002F6B
:1042800006DAFE20311C8005FFF715FE7942061C78
:10429000301CFFF73BFFEBE7FE208005E8E7301C12
:1042A000FFF7D4FEFFF72CF906000F00281CFFF7DC
:1042B000CDFE32003B00FFF7FEF8FFF715F9FFF7E0
:1042C00007F9D5E7FF20BBE70020D1E7FF20C005B5
:1042D000CEE7C04600FFFFFFF8B5CE4647460D1CAF
:1042E000FE2180B58905041CFFF728FE261C002846
:1042F0002CD1EB0DFF2798463B40994643461F4281
:1043000029D05D49201CFFF719FE002826D04B4616
:10431000FF2B20D04346FF2B41D0584B984538D037
:104320007F224B4652429B1839D4534A1721CB1A4D
:10433000002B06DD163999400B00013B2B4200D0C3
:104340007CE0291C201CFFF74BFF061C301CC0BC66
:10435000B946B046F8BDFE26B605F7E73900E30DCD
:10436000220019401F4216D17F224B465242002D97
:1043700018DB9A180DD417239B1A0AD401200200C7
:104380009A40013A2A4204D1172BDFD0DD4028425F
:10439000DCD10026DAE7FF2B1AD1002DF9DBFF264E
:1043A000F605D3E79A18FAD417239B1AF7D40120FD
:1043B00002009A40013A2A42F1D1172B02D0DD4087
:1043C0002842ECD0FF26E00FC007F6050643BDE704
:1043D0002A48834227D17F224B465242002D10DBD0
:1043E0009A18DCD417239B1AD9D401229A40013A97
:1043F0002A42D4D1172B02D0DD40EB07CFD5204E77
:10440000A4E79A18C5D417239B1AC2D401229A4054
:10441000013A2A42BDD1172B02D0DD40EB07B8D5B7
:104420008026360692E74346FF2B1DD080451FD0DD
:104430007F214B4649425B1800D477E7002AAEDB68
:10444000201CFFF703FEFFF75BF806000F00281C97
:10445000FFF7FCFD32003B00FFF72DF8FFF744F8B3
:10446000FFF736F8061C71E77E2998DC00266DE719
:104470007E2994DD8DE7C046000080BFFF0100006B
:10448000000080FFF8B5454657464E46DE46E0B58B
:10449000FF268846C50DC90D35401700041C0E4087
:1044A000002A01D000231360FF2D60D0002E5ED0C3
:1044B000002D5FD0201CFF2E53D0731EAB4250DC6A
:1044C000E20F94468022120491466402640A144367
:1044D000424649465202520A11438946AB4251D0E4
:1044E0006346002B58D000216442AD1B002D5CDDDB
:1044F0004B460120D9114042FEF772FD1D23834631
:1045000000219C462A000C2D00DD0C225846631227
:10451000944043436046A246801A03414C465046AD
:10452000914001335B105C435918041BAD1A002DF8
:10453000E8DCA14537DC4B46E41AA14546DCE41A29
:10454000023163004B4519DC16D04346002B00DADC
:104550004942002F00D0396096212000891BFFF7C7
:104560006FFDF0BCBB46B246A946A046F8BDFF2091
:10457000C005F6E70020F4E7CB07E6D54B4601314E
:10458000E41AE2E78C42ECDD6346002B13D14B00CA
:104590002E000121E41AD8E7AD1B002DA8DC8C42C7
:1045A00011DA0021CDE7002CCBDA4B46E41808D510
:1045B0004C440239C5E74B0001212E001C1B494227
:1045C000C3E70139BDE74B460021E41A0131B8E7E2
:1045D00010B50022FFF756FF10BDC04607B5604674
:1045E00001880A0A0230DF2AFAD1C9B2820804D34C
:1045F000028840880004104300E00068014A5050DF
:10460000039007BD281300200021C215803280329C
:1046100001D0024A1047002070470000CD2A000058
:10462000C30FDB0741000A0E07D0FF2A08D0090993
:10463000054A891819434007704719000020704740
:104640000249C918FAE70000000000380000F07FB6
:1046500001480421014B184750100020DD2C0010A8
:10466000014B1B681847000050100020014B5B688D
:10467000184700005010002010B5002800D110BDD0
:1046800000F036F9FBE7C04610B5094A030014688C
:1046900084B0002C08D0012200910648524203A9A0
:1046A000A047012004B010BD00F06EF90020F9E72A
:1046B000005D00207946001000BEFDE710B5FFF751
:1046C000FBFFC04670B5FEF747FB074D074EB542EE
:1046D00009D20024013E761BB60808CD9847230076
:1046E0000134B342F9D170BD1C6900102469001077
:1046F000030010B5080011001B68984710BDC046A4
:10470000F0B546464F46D646C0B5437D80460E00BE
:104710001700002B46D0002A3FDD4B1E9946244B44
:104720000125002400209A460DE04B461B5D0D3B01
:104730005A425341325DDBB20A2A0BD02B000134BE
:1047400001359F421ADD002CEFD14346325D1B7DBF
:104750000A2AF3D1002BF1D1A04204DA4346211AF0
:104760001B6830189847434650461B6802219847FB
:10477000013428002B0001359F42E4DC874204DD30
:104780004346391A1B6830189847F619013E3378AA
:104790000D3B5A42534142461375E0BCBA46B146FE
:1047A000A846F0BD0368110030009847F5E7C04601
:1047B000E86A0010F0B5DE4657464E464546E0B57D
:1047C00085B017001C0006000D00FDF7EDFF00236B
:1047D000314A12184B41002B59DB304908008A46F8
:1047E00002F056F801906B1C03D1300001F0E6FF97
:1047F0000500002C26D12A4B98462A4B1C68002C19
:1048000015D0002F21D1284F02E02469002C0ED0B2
:104810002368002BF9D03B68002B01D0A342F4D1D0
:1048200020002A003100C0472469002CF0D1019BF0
:10483000002B28D1280005B0F0BCBB46B246A946E3
:10484000A046F0BD194B9846D7E7174B994602ABE7
:10485000DF1D0A239B4602E02469002CE7D0236871
:10486000002BF9D04B461B68002B01D0A342F3D19B
:104870002A0031002000C0475B4601223900200099
:104880003B70C047E8E7504601F0D2FFD2E7012273
:10489000074B5242A1E7C04640420F00A010002043
:1048A000F1460010942800209C28002001470010A9
:1048B000FFFFFF7F0A4A1368002B05D10CE01A00A6
:1048C0001B691032002B07D09842F8D1002902D181
:1048D00003691360016170470029FCD01060FAE79A
:1048E0009428002010B500F037F9012010BDC04613
:1048F000F0B5CE46474680B583B06B460600DD1D59
:104900002870FDF751FF00231A4A12184B41002B63
:104910002BDB19490800884601F0BAFF174B814686
:104920001C68002C14D0164F02E02469002C0FD014
:104930002368002BF9D03B68002B01D0A342F4D1AF
:10494000200001222900FFF7DBFE2469002CEFD1B3
:104950004B46002B05D1300003B0C0BCB946B04671
:10496000F0BD404601F064FFF5E70122054B5242DD
:10497000CFE7C04640420F00A0100020942800203E
:104980009C280020FFFFFF7F70B5040001F016FF98
:1049900001230100050001222000FFF70BFF084B57
:1049A0001C68002C06D06368002B05D0984724694A
:1049B000002CF8D1280070BD2469002CF3D1F9E750
:1049C00094280020F0B50D1E15DD0E4B0D271A683A
:1049D0000D4B4519D31859424B410C495B005E5EA3
:1049E00020210478A64207D093691942FCD10130F6
:1049F0001460A842F5D1F0BD93691942FCD117604B
:104A0000F2E7C0463C5D00200080FCBF385D00201E
:104A100030B504000D1E24DD002010211A4B013C8E
:104A20001A689369194217D1013093691942FCD170
:104A3000136823548542F4D1144B1B68002B0AD011
:104A400050239363516B183B0B4011498C466244D1
:104A50001360002814D030BD0C4B1B68002BEFD125
:104A6000F7E70A4B1B68002B0AD05022064B1B6845
:104A70009A63596B183A0A4005498C4663441A6098
:104A800003204042E7E7C0463C5D00205428002058
:104A900034100000064B10B51B68002B06D0002117
:104AA000044A12689163044A1068984710BDC046D2
:104AB000542800203C5D0020582800200822034B89
:104AC00019688B691A42FCD17047C0463C5D0020D2
:104AD00070B51B4E1B4B32680500D318584243413A
:104AE00014331C00002D04D0174B1A68002A11D073
:104AF00070BD154E3368002BFAD00021200095635D
:104B0000FCF7D6FF20001149FDF70EF9104B356078
:104B10001D60EDE71D600E4B200019600B49FCF78E
:104B2000E5FF01212000FCF7C3FF502233689A63A0
:104B3000596B183A0A4007498C4663441A60D7E714
:104B40003C5D00200080FCBF54280020954A0010E6
:104B500058280020341000000D4B10B51B780D4B69
:104B60000D4C1B780D4B02211B780D4B0020236050
:104B7000FCF776FE02210120FCF772FEE12120689D
:104B80004902FDF755FE01210648FFF793FE10BDCF
:104B9000B46C0010B86C00103C5D0020BC6C0010C0
:104BA000004003406010002003BDC04610B5040063
:104BB000FEF7E6F8A04710BDF0B5040087B00F205F
:104BC0000E001700FCF786FF002105000F20FCF700
:104BD0006FFF002300220092019301230293D02350
:104BE00004960594002600240121022003971B0649
:104BF000002C14D01A6D1042FCD05C6540BF1A6DB9
:104C0000114203D120BF1A6D1142FBD09A6DA2420E
:104C10000AD000266C46B200A458E9E79A6D1A6DD6
:104C20001142FBD140BFE5E70136052EF2D929003C
:104C30000F20FCF73DFF07B0F0BDC0460B4B0C4A00
:104C400010B5934201D201235B420A4C0A4A190073
:104C500092681851FF20A446C0001B50074B08481B
:104C6000C85008486144FFF7A7FF10BD00080420A2
:104C700000000420F407000000ED00E0FC07000045
:104C8000AD4B0010A94B001001230121084A13600D
:104C9000084A1360084A080013689843FBD1074A82
:104CA00011608021490013680B42FCD07047C04658
:104CB00000E0004000F0004008C0004000C0044098
:104CC00000B5054B83B00100009300220B2303487D
:104CD000FCF764FE03B000BD346B0010405D0020A3
:104CE000F0B5DE4645464E4657468846E0B583B0A9
:104CF000050005240190FCF719FE4246117914576E
:104D0000324A2B00944663441B0D9B009C46304A5C
:104D10008146130093466246985801238B400090C9
:104D2000013B002C33DB2022521A944222DCA340A8
:104D300018421FD142461268250092464246927997
:104D40001E00002A3ED1002200290DD057465300F4
:104D5000FF5A7B0B00D17F19AB18019812339B00CF
:104D600001321F508A42F1D35B46624600983043BD
:104D7000985001E0012464424846FCF7E3FD20001E
:104D800003B0F0BCBB46B246A946A046F0BD202405
:104D9000641A0DD41E00A6402500064206D10AE082
:104DA0001E00A640009A2500164204D0013CF7D20E
:104DB00009246442E0E743461B689A4643469B79D0
:104DC000002BC0D014246442D6E7C0460000E0AFF8
:104DD0004C170020F0B54E464546DE465746E0B536
:104DE00083B089460CA90D7801901F2A48D84946FE
:104DF000490088464944C900461837003400DC376A
:104E00003868CC3483462068310082461E488024AE
:104E10008446A40261440C60691E8D411F216D42CD
:104E20000D401A498C466544052B0ED9A021490531
:104E30008C461F21D8366046540104430532053B99
:104E40003C600A403560052BF5D8414652019B066F
:104E500013434944019AC90050180200DC32136020
:104E60000300D8331D605B4613605346CC300360AB
:104E7000002003B0F0BCBB46B246A946A046F0BD38
:104E800005204042F5E7C046CC30000080E000003D
:104E9000F0B501248C401D000368A34303604B0060
:104EA0005C18E40004192600C836002D28D02F68AD
:104EB000DC343760AF68043677606F68ED68376060
:104EC0002560164D5B18AC468025DB00C418644491
:104ED0002D0625602560124C0D1D8C408460012438
:104EE0002600AE40802508318C401F21AD014519B8
:104EF000C0180A40D8302E602C6002600020F0BD3F
:104F000080277F023760C0273F03B760F827043649
:104F10007F02DC3437602560D3E7C046D010000044
:104F200001010101F8B500F045F90C23194DFF22EC
:104F3000AB6705201849FCF703FE184C40220021FE
:104F40002000FFF78DFB4027002301262121144A72
:104F500066702783A260136063545F3161844539B2
:104F60006354104A10496360E2602787A1620B60B6
:104F70006362E26201F07CFC80239B052E64EB649B
:104F800090230A4A0120EA508022094B5202DA6437
:104F9000F8BDC0460000115069030020FC580020F5
:104FA00084001050000110508000105010D00100FB
:104FB0000020115010B501210520FCF779FD10BD2E
:104FC00010B500220021024800F014F910BDC046BF
:104FD0001C590020044B1970002904D08021902313
:104FE000024A8902D1507047435D002000201150D1
:104FF0000B785B0602D14B78052B00D070478A787E
:10500000014B1A60FAE7C04600001150F0B5C646E1
:10501000C87800B58007830F1800012B61D08F7806
:105020000C794B797F211B02394023434E00FC0948
:10503000334D32195201AA189770012767405770F3
:1050400000275B055B0DD7701383D076B846CA0086
:10505000012C32D02B4FBC468F016244BC46AC447D
:105060006746BA6047461760002932D0264AC90011
:1050700090466246414451603F223F3393430228A9
:1050800038D0224937190A687F01D3180B602049AC
:10509000EF19FA608B422FD8341964012D19EB7E79
:1050A0001C499B064A4013438022012012061343E9
:1050B0006A68136080BCB846F0BD174FBC468F01CC
:1050C0006244BC46AC446746BA6247461760002952
:1050D00009D1002364012D196B60104B0120EB6096
:1050E000E8E70020E6E70B4AC900904662464144E3
:1050F0005162C1E75B00C4E7FDF728FEFA68CBE721
:10510000FC5800208400105004001050045D002062
:10511000FF0F105000001050800010500001105080
:1051200010B501F0A5FB10BD10B57F200C0020408C
:105130004000E409110000191A00034B4001C01897
:1051400000F058F8012010BDFC5800207F22130009
:1051500010B50B400A420BD0C909802258004018F4
:105160000649400140181201002101F0A9FB10BDC1
:1051700002220348C909521A8266EEE7FC58002051
:10518000002011507F22100010B508400A4200D1C3
:1051900010BD0023C9094000401804494001081807
:1051A00000220349C37001F08BFBF1E7FC5800209B
:1051B000FFF7FFFF80220A4B520410B51A60094B1B
:1051C00009491A6010000B689843FBD18022002126
:1051D00052010648FFF744FA0922054B5A6710BDF1
:1051E00000E0004000F0004008C000400000105007
:1051F0000000115070B5837E04000D001600002BD6
:1052000017D10023E38201332000A682A376256113
:1052100001F05EFB002804D080219023084A890217
:10522000D150200001F014FB002805D00123237782
:1052300070BD01F03DFBE4E7200001F031FBF7E732
:1052400000201150002070477047C0467047C0468C
:105250000020704700207047002070477047C0460C
:105260007047C0467047C0467047C046F0B54646D6
:105270004F46D646C0B52E4B814698461B780E0049
:105280000124FF2B40D100293DD000215422294880
:10529000FFF7E6F90022284C284B20001A70FCF793
:1052A000B3FE274B1C60274C20001430FCF7BAFEDD
:1052B000200001F03BFA244B244D1C60244B002BB2
:1052C00004D0280000E000BF224B1860224A0024CE
:1052D00092462B781F4F0EE03A6863019446634470
:1052E000002B10D05B68002B0DD0984701342B7831
:1052F000E4B2A3420ED39C42EED3E31A5B015344C3
:105300005B68002BF1D100242000E0BCBA46B14616
:10531000A846F0BD43464A46310048461A70FFF79A
:1053200001FE041EEFD04846FFF744FEECE7C046FE
:10533000941000203016002028160020445D002024
:10534000841600207810002088160020425D00207E
:105350000000000044140020586C0010F0B5DE4638
:1053600057464E464546E0B5BC4B8BB01B78FF2BED
:1053700000D127E1BA4BBB4D9A4607AC2E68726943
:10538000EFF3108172B61368002BFCD0BFF35F8F70
:10539000B1613000210001F00BF87269B369BFF30D
:1053A0005F8F0021116083F31088002800D109E18C
:1053B0006378082BE2D852469B00D3589F46636817
:1053C000002BDBD0A0689847D8E77F232179A64E31
:1053D0000B405800CA093618B6183200012730327F
:1053E0001079B843107110790337B8431071002B4E
:1053F00000D1F0E09D4A337D1278934200D3DFE084
:105400009B4A5B011268D318002B00D1DAE09E6939
:1054100062792078A368B047B0E7964A1378002BEA
:1054200000D1CFE01378013BDBB213701378002B6F
:10543000A4D101228C4B01211B788B4813438A4A4B
:10544000894E13703423D25C8A43C254C25C042058
:105450008243F2540133F25C8A43F254F25C824399
:10546000F254237800209B4600F03EFC6022237912
:105470001A40602A0DD0402A00D1B4E0DB06DB0ED2
:10548000012B00D1FEE0022B00D1C6E0002B00D1A1
:10549000B5E020780021FFF759FE80212078FFF742
:1054A00055FE6BE7704E3378DB0700D466E7FFF7F5
:1054B000DBFE63E76C4BDB78DB0700D45EE76068FC
:1054C000FFF7C4FE5AE7684E3378DB0700D455E790
:1054D00030780007C00FFFF7C5FE4FE7664A634EFE
:1054E00023789346624A98469146320033780027E3
:1054F000464690460FE04A4612687B019446634454
:10550000002B66D0DB6830009847434601371B7894
:10551000FFB2BB423ED39F42EDD3FB1A5B015B441B
:10552000F0E7554A514E23789346514A98469146A2
:10553000320033780027464690460FE04A4612680C
:105540007B0194466344002B1FD0DB6830009847F2
:10555000434601371B78FFB2BB4205D3BB42EDD8AF
:10556000FB1A5B015B44F0E73F4E54220021300000
:10557000FFF776F81022FF21301DFFF771F8300099
:105580002022FF211430FFF76BF800F0A3FBFFF798
:1055900067FEF3E6344E542200213000FFF760F836
:1055A0001022FF21301DFFF75BF830002022FF2181
:1055B0001430FFF755F800F08DFB2379B370DDE66A
:1055C00093420ED00BB0F0BCBB46B246A946A046F3
:1055D000F0BD254EEFE762792078A36800F098FBD4
:1055E000CCE6254B13E7254800F07EFB0121584609
:1055F00008AAFFF727FE002800D0BFE649E7202AC7
:1056000000D13FE1002A00D043E76379092B00D99C
:105610003FE71B4A9B00D3589F467023217A0B42D9
:1056200000D036E77F26CB0998460E400E4B760019
:105630009B1943441F7D0D4B1B789F4253D300D0D1
:105640003CE10D4F002A00D13CE1786900F04CFBB1
:10565000012158467B6908AA9847CCE7941000209E
:10566000B06B00108816002030160020425D00202C
:1056700044140020445D0020586C00104552001076
:10568000D46B0010237A0F2B00D902E7CF4A94463F
:10569000CF4A63441B79127893422FD300D0F8E6A7
:1056A000CC4E706900F020FB01215846736908AAAE
:1056B0009847002800D061E66022160023791E403A
:1056C0001A4200D0E5E663790A3B012B00D9E0E6F7
:1056D00000F00AFB63790A2B00D148E1584608A97B
:1056E00000F082FA4AE6BC4B7F011B68DF19002AF2
:1056F00000D1E7E0002F00D1CBE6A6E7B64A5B0178
:105700001668F618002E00D1C3E6CAE7AF4BA7799A
:105710005B789F42E2D0AD4B5B78002B00D061E11B
:10572000AA4B5F70002F00D14DE1781EC0B2FCF78C
:1057300057F8002800D142E143780493022B00D0AF
:105740003DE10121C279931152110B400A4012012F
:105750005B0113439D4A2F3112788A4313439B4ABE
:10576000137009239946C37882781B021343C31828
:105770000293994B814498464F46029BBB4200D806
:10578000FEE001227B7801920B2B04D1FB78019380
:105790003B78FF187B78042B00D010E1029BB946C0
:1057A000DB1B9BB203938A4B1E7800231F0019E07A
:1057B000424612687B01D618002E00D1FFE0494610
:1057C0005846039A336998470590082803D9039AE5
:1057D000824200D3D7E07E4B01371E78FFB2BE4233
:1057E00000D2ECE0BE42E3D87A4BBE1B9C46760169
:1057F0006644E4E7754B06AA5B780232137058469C
:10580000012308A900F008FAB8E5E088030AC0B24D
:105810000F2B00D93DE671499A008A58974608A88F
:1058200000F068FA5846A179FFF7CAFB0222674BDD
:105830001B781343654A1370A0E5E388012B00D061
:1058400027E60822614B1B789343604A137045E7B3
:1058500002205E4B197806AB9A1C8B068908DB0F79
:1058600001400B4313805846022308A900F0D4F9E5
:1058700084E5E388012B00D00BE60822534B1B780C
:105880001343E2E7237A0F2B00D902E64F4A9446EE
:1058900063441E794E4B1B789E4227D24E4A7301B9
:1058A0001668F618002E00D1F3E5706900F01CFAB6
:1058B00001215846736908AA98479CE60027002AE8
:1058C00000D0E6E50222637999469343012B12D07A
:1058D0004B46002B00D0DCE53C4B06AA9B19434409
:1058E00030331B7902329B07DB0FBBE79E4200D0AF
:1058F000CFE5384ED9E7E388002B12D14B46012B78
:1059000024D0374B1878FFF721FC02212F4B9B192D
:10591000434430331A790A4301211A711A790A4330
:105920001A71002F00D129E5786900F0DDF97B6953
:1059300008AA012158469847002000F0D5F93523E0
:10594000224AD35CDB0700D518E5C7E6244B18785C
:10595000FFF718FC02211D4B9B19434430331A7981
:105960008A4349461A711A798A431A71D9E706ABF4
:105970009A1C5846012308A9167000F04DF9FDE461
:10598000FFF76CFCAAE63B004F469946019B012BB2
:1059900000D185E0019B002B73D000234E46B978DF
:1059A00005E016710133019ADBB2934268D20748D1
:1059B000CA188446D2B262441079FF28F1D000237D
:1059C000024A537065E5FFF74BFC87E6301600206E
:1059D000425D0020586C001044140020FC6B001045
:1059E0009410002000215846FFF7F4FA5846FFF7BC
:1059F00097FB0022424E9046424A434B914632006A
:105A00009B7801933378464690460FE04A461268E9
:105A1000730194466344002B20D0DB6858469847B6
:105A2000434601361B78F6B2B34207D3B342EDD8F2
:105A3000364AF31A94465B016344EEE75422002190
:105A40003148FEF70DFE304B1022FF21181DFEF7E6
:105A500007FE2022FF212E48FEF702FE2A4B019A64
:105A60009A705DE6FFF7F4FB021E00D111E5D378D2
:105A700091781B020B43584608A900F0CDF8BAE50F
:105A8000B146059E4B4639003200214800F012FC19
:105A9000B4461B4B67441B784B4500D36DE68EE73D
:105AA0001C4B32699A4200D077E7049B019374E75C
:105AB000FFF7D0FB021E00D1EBE45846137808A98B
:105AC00000F0AAF897E52189FBF78EFE021EF4D1BB
:105AD000DFE4022B0FD0FFF7BFFB021EC7D1D8E4D3
